:020000040800F2
:1080000000000120B1C5000801C6000801C6000833
:1080100001C6000801C6000801C6000800000000F3
:1080200000000000000000000000000001C6000881
:1080300001C600080000000001C600083F830008D8
:1080400001C6000801C6000801C6000801C60008F4
:1080500001C6000801C60008CBB40008C5B400087A
:1080600001C60008BFB40008B9B4000801C6000882
:1080700001C6000801C6000801C6000801C60008C4
:1080800001C6000801C6000801C6000801C60008B4
:1080900001C6000801C6000801C60008A3B4000814
:1080A0000992000879920008F991000801C60008B9
:1080B00069920008599200084992000873900008DC
:1080C0006D900008679000086190000801C60008E4
:1080D00001C600085DA4000845A4000829A4000802
:1080E0008BB400085195000801C6000801C60008BD
:1080F0001992000801C6000801C6000801C6000860
:1081000001C60008000000000000000001C60008D1
:108110000DA40008F1A30008399200082992000874
:1081200001C6000801C6000801C6000801C6000813
:1081300001C6000801C600080000000000000000A1
:1081400001C6000801C6000801C6000800000000C2
:10815000000000000000000000000000000000001F
:108160005B9000085590000801C6000801C6000891
:1081700001C6000801C60008E991000801C6000810
:1081800001C6000801C60008000000000000000051
:0481900001C600081C
:1081940010B5054C237833B9044B13B10448AFF33D
:1081A40000800123237010BD0C010020000000009A
:1081B40038D700080C4B43B10C480D4910B5AFF348
:1081C40000800C48036823B910BD0A48036833B91A
:1081D4007047094B002BF7D0BDE810401847064BF9
:1081E400002BF5D0184700BF0000000038D7000866
:1081F400100100200C01002000000000074A937CBD
:1082040000EB4000023318448318805C5B7813F061
:10821400200F0ABF024B8018C01870476401002069
:10822400D4060020074B9A7C00EB40001044034422
:108234001A79052AC3BF044B9B1813F8060C0020B7
:10824400704700BF6401002050D70008704790F8C1
:10825400242062B1064A916949B1126C3AB9054ABF
:1082640092F80021520702D503685B6818477047EB
:1082740018030020D4060020002380F8243070471F
:1082840010B50446806C18B1036803211B68984735
:10829400002384F8243010BD4B060D4B1B7803F0EB
:1082A4000C0363F04F0380F82C30836A80F830307D
:1082B40044BF02F03C0211431A12602380F83210CA
:1082C40080F82F2080F8313007212C3002F0DCBCFC
:1082D4001803002010B54FF48072044600210748AB
:1082E40004F0C4F9064A00231370012284F84C20D8
:1082F400044A23651268626510BD00BF6401002052
:108304006C020020D8070020044B41685A6891424F
:1083140004BF012283F88D2002F0C2B84406002075
:10832400431C02D1002070470C3191F900305A1CD3
:10833400F8D09842F8D148687047024A136801336C
:1083440013607047D807002008B5054901F033F9D8
:10835400C0F3C43002280CBF1020002008BD00BFA9
:10836400E8D7000808B5064901F025F9C0F3C43080
:10837400023802289DBF034BC018807A002008BD34
:108384000CD8000850D7000888B0072867D8DFE861
:1083940000F004121E2A36424E5A324B5A6942F4F5
:1083A40000325A615B6903F400330093009B4FF081
:1083B400904008B070472B4B2B485A6942F48022F6
:1083C4005A615B6903F480230193019BF1E7254B18
:1083D40026485A6942F400225A615B6903F4002377
:1083E4000293029BE5E71F4B21485A6942F480122D
:1083F4005A615B6903F480130393039BD9E7194B18
:108404001C485A6942F400125A615B6903F4001370
:108414000493049BCDE7134B17485A6942F4800236
:108424005A615B6903F480030593059BC1E70D4B17
:1084340012485A6942F400025A615B6903F400036A
:108444000693069BB5E7074B0D485A6942F4803200
:108454005A615B6903F480330793079BA9E7002003
:10846400A7E700BF001002400004004800080048CD
:10847400000C004800100048001400480018004890
:10848400001C0048C0F30312012300F00F0003FA9C
:1084940000F051F82230034341F822307047C0F312
:1084A400031300F00F0051F8233023FA00F000F01A
:1084B40001007047034B19681A68521A8242FBD3B1
:1084C400704700BFD807002001207047024B1622D6
:1084D4001A604FF0FF307047C4080020FEE72DE912
:1084E400F74F504E8A4633684F4901930220154690
:1084F400FFF716FF20B90025284603B0BDE8F08F2A
:108504004A4A002352F823105FFA83F911B109682B
:10851400884224D00133052BF4D1454C94F87430AF
:10852400042B1AD9434B50E090424DD193F90030BB
:1085340084F88930022384F888304FF41653A367F3
:108544003B480023C4F88430E367C4F8803001F06A
:1085540040F894F87430042BCDD894F874901FFA32
:1085640085F8324B53F8294094F86930202B51D1C7
:10857400BAF1000F4ED0B8F1000F4BD094F8683028
:10858400012B47D04FF0010384F868300023E366E1
:10859400212384F86930D6F800B0A4F85080A4F8F8
:1085A40052805746B4F852309BB2A3B94FF47A7351
:1085B4005A464021204602F0B9F958BB202384F8DA
:1085C400693084F8680097E70C335A68002AABD105
:1085D4004FF0FF33ACE7B4F85230013B9BB2A4F840
:1085E40052305A464FF47A738021204602F09EF9A5
:1085F40080B9A3682268B3F5805F07D123692BB9DA
:1086040037F8023BC3F308031385CBE73B781385A4
:108614000137C7E73368019A9B1AB3F57A7FA0D371
:1086240069E700BFD8070020D8D900082801002036
:10863400080000205CDA0008002070470020704722
:10864400012070474FF400534B60002070474FF0F7
:10865400FF307047094B5968024609B90849596007
:108664005868694602448A4289BF064B5A600C2204
:108674004FF0FF3088BF1A60704700BF6C020020C3
:10868400C8080020C408002030B50B4B0412997DA3
:10869400C2B21B33012088420ADC13F8025CAC42EC
:1086A40003D113F8015CAA4204D001300233F2E78B
:1086B4004FF0FF3030BD00BF640100202DE9F04FC2
:1086C400344C637CA57C1F19E35C85B05B0002908D
:1086D4000E4690460193FFF7D7FFB0F1000A56DB30
:1086E400AB1C07F1010903934FF0030B019BA9EBAA
:1086F400070293424BDB99F80020924532D199F856
:108704000150039B1BFB05322244802E527801D07A
:10871400402E30D102F01402142A23D12846FFF748
:108724006DFD01462846FFF77DFD00281DDDC21DB5
:1087340042440139801A12F801E901F801EFC242FA
:10874400F9D1A27C144B22445278D2180AD015F0E5
:10875400010F4FEA650508BF0820515D18BF80204E
:108764000143515509F10209C0E798F8072002F0C6
:108774003F020A70E5E7002EF4D102F00C020C2A45
:10878400F0D101220299284600F008F8EAE705B082
:10879400BDE8F08F64010020D4060020F8B5174628
:1087A40004460D46FFF72AFD06462046FFF73AFD2C
:1087B400194BBC221A710A12DA7119720022411C77
:1087C400974201F00F019A7261F01F0114BF402219
:1087D400802204465972DA7258B1013830440B339E
:1087E400211A4218002A09DD10F8012903F8012F83
:1087F400F7E7317801F03F010A43DA722846802115
:10880400064AFFF75BFF04F1080189B20348BDE89B
:10881400F84002F039BA00BFEC050020F005002052
:1088240090F824302DE9F74F0446002B00F0BB806C
:10883400FFF70DFD94F84C30DFF89881002B7DD0C4
:108844005E4B1B6C002B79D15D4E626D33689B1AB5
:10885400226D934269D35B4B9A7CD1184F785A4965
:108864007F1862D0D8F8085093F811E0D15C0191D8
:1088740005EB45009E44104418440EF101091633DB
:10888400019A954280F289804FEA650C15F0010A3D
:1088940017F80C100A4618BF0A1102F0030BBBF1BB
:1088A400030F21D1BAF1000F14BF6FF0300A6FF03B
:1088B400030A01EA0A0107F80C109EF800C04946B1
:1088C4000EEB4C0C8C450FD991F801A055450ED1F7
:1088D40009784900013101EB030A11F803C09AF841
:1088E400011051EA0C2104D101350330C8E70231EB
:1088F400E8E790F803C01CF0040FF5D012F004026E
:1089040044D03248BC2303710B12C371E123437278
:10891400002301728372C3720821043002F0B4F997
:1089240001353368C8F808506365636D3268D21A3C
:10893400B2F5FA6F24BF03F57A736365A36A3BB19A
:108944001F4BA26B1B689B1A41F2707293422DD885
:1089540098F800303BB3194B93F828201ABB1A6CD3
:108964000ABB9B69FBB9A36AEBB9194A144910689D
:108974000B68B0B11B1A002B15DDA06C98B103680D
:108984001B68022103B0BDE8F04F18471CF0400FEC
:10899400AAD02846FFF702FFC2E70023C8F8083030
:1089A400C3E73233136003B0BDE8F08F00228121A6
:1089B4002046FFF771FC0023A362C9E718030020D7
:1089C400D807002064010020D4060020EC05002014
:1089D400640200206C0200202DE9F743B24E96F8A1
:1089E4000680F2783779F5794FEA082303F4407367
:1089F4002B4357EA0227044699B22ED1AB4A92F888
:108A04000021D0070ED5C02B11D13389A84A5BBAF7
:108A14009BB21912D1751376A64A336201211170E3
:108A2400A54A17600023B36103B0BDE8F083B1F534
:108A3400807FF7D13378E77103F00C0363F04F03C1
:108A44002371E12363720123A37240232772E3722B
:108A54000821201D02F018F9E4E796F90520002A00
:108A640008F0C30EC0F25981326A9742DAD11EF07F
:108A7400800F7778B27843D042EA072718F0400293
:108A840024D0BEF1C20F14D190F83C206AB1826A9E
:108A940097420AD1036C08F03C029A4205D0436B1A
:108AA4000264043303F03C034363012384F83C3041
:108AB400B8E7BEF1C30FF8D1826A9742F5D100221C
:108AC4008121FFF7E9FB0023A362EEE7B8F1800FF1
:108AD4000ED1826A002AA5D1784987620968816328
:108AE4004FF0FF33426380F83C200364726299E7DD
:108AF400B8F1810F96D1816A8F4293D18262F5E7F2
:108B0400806A42EA072282428CD16C4A1268A263CC
:108B140001F470720020B2F5007FA0725AD012D80E
:108B2400B2F5C07F22D0B3F5607F09DB40F2813219
:108B3400934240F3C78040F2D132934200F0E08088
:108B4400C32100251FE0B2F5207F43D0B2F5407F5A
:108B5400E9D18A06F4D1632363724323A3724023C9
:108B6400E37200232373122363730AE06422337ACB
:108B7400627265F03F054122A272E572237360734D
:108B8400A073C221012508F03C022046FFF784FBB4
:108B9400002D3FF447AF3378617A03F00C0363F0A0
:108BA4004F032371A36A23721A12A37AE27113F09A
:108BB400400217BF626B84F83C2023F03C0313434C
:108BC40018BFA37201F00F011CBF012384F83C30CD
:108BD40007313EE73789B2F5207F7FBA05F00F05EC
:108BE400BFB240F0C380606C30B1036839469B6803
:108BF4009847002840F09C80A7F58070FF283B46EA
:108C04000DD82B4B2E492A46184404F0D5FA294B8B
:108C140001221A70284B00221A60C22191E7FF2F0B
:108C2400FBDC602F06D9214825492A46384404F044
:108C3400C3FAF2E75A195F2AF5D90A35204A1B49C3
:108C440035449542E9D0602B107814BFC85481F89C
:108C5400000101320133F4E7FF2F72DD606C28B1AB
:108C6400036839469B689847002873D105F163036C
:108C740063724223A37245F040053B12E5722373ED
:108C840067737EE779195F2960D9084912F1FF32C9
:108C9400E4D3602B14BF11F803E091F800E180F8ED
:108CA40000E001330130F1E718030020D40600206E
:108CB400640100206C02002064020020D807002018
:108CC40022030020CB0708D5327A737A2AB9FF2B06
:108CD40002BF4FF080532E4A1A60A06C18B103688B
:108CE40001211B689847BFF34F8F2A492A4BCA6852
:108CF40002F4E0621343CB60BFF34F8F00BFFDE784
:108D0400622363724323A372D223E3720023237387
:108D140037E7002384F82C3084E6BEF1000F7FF49B
:108D240081AE324601F470713846FFF7C7FC79E62C
:108D3400606C1A4A03683946D3F800902B46C8473A
:108D44005AE7602F04F10E002A469BD914492A469B
:108D5400394419E0606C002203680092D3F804904F
:108D640004F10E022B463946C8477FE7B2F5007F6F
:108D7400CFD1A7F58071FF293B463FF66DAF094B74
:108D84002A46194404F10E0004F016FA66E700BFFF
:108D940055B01F5E00ED00E00400FA052203002038
:108DA400D406002064010020044B01685A689142F3
:108DB40004BF012283F88C2001F072BB440600201A
:108DC4002DE9F04106460D4601EB02080C464445E8
:108DD400A4EB050707D0336814F8011B1B68304661
:108DE40098470028F3D13846BDE8F081B0F89A30AE
:108DF400013303F03F03A0F89A30B0F89A30B0F88A
:108E040098009BB298424FF0FF3018BF0020704783
:108E1400037C33B1B0F82C21B0F82E319BB29A42C6
:108E2400FAD17047B0F82421B0F8263192B29A42B0
:108E34001FBFD0F82021D25C013303F03F031ABFD7
:108E4400A0F8263110464FF0FF307047B0F82431B7
:108E5400B0F826219BB293421ABFD0F82031985C17
:108E64004FF0FF307047B0F82431B0F82601181ADB
:108E740000F03F00704738B5012303740446B0F88E
:108E84002C01C31803F03F03B4F82E2192B293428D
:108E9400FAD0D4F82821194D115494F80821A4F8D3
:108EA4002C3155F8221091F8693091F86A100B436F
:108EB40003F02103212B1ED0114B124943F8221039
:108EC40003EB820304F194025A610021022294F913
:108ED4001E0101F049FA94F91E0101F079FAB4F87F
:108EE4002E11D4F8282194F8083112FA81F155F89A
:108EF400230002F0A7FA012038BD00BF280100209A
:108F040078020020F18D000838B5044620B390F8AB
:108F14007420124B53F8220090F8693090F86A20BC
:108F2400134303F02203222B16D0214611F8755F58
:108F340001F0BAFCB4F89030B4F89220013303F095
:108F44003F03934208D0B4F89020D4F88C1092B226
:108F54009BB28D54A4F8903038BD00BF2801002086
:108F6400FEE770B505460C46084649B102F00EFB13
:108F74002B680246214628465B68BDE870401847C6
:108F840070BD30B58BB00B4600218DF82410012A3A
:108F9400D8BF0A220DF12304B3FBF2F505FB12330B
:108FA40003F0FF03092B94BF30333733DBB2214680
:108FB40004F801392B46002DEED1FFF7D2FF0BB098
:108FC40030BD2DE9F84306460C46071D00F107099C
:108FD400002517F8011B0A222046FFF7D2FF236859
:108FE40080461B682E2120469847B94540440544D5
:108FF400EFD10A22F1792046FFF7C3FF2844BDE8E8
:10900400F88300BF0368DA69D20782B003D59B8C6A
:109014009BB2019308E0DA699007F8D4DA69510742
:10902400F5D4DA691207F2D4019B02B0704710B587
:1090340048B10649002351F82340A042DAB203D0D4
:109044000133052BF7D10522104610BD280100205D
:10905400002001F059B9002000F07CBD002001F08F
:1090640053B9002000F076BD002001F04DB9002076
:1090740000F070BD436D10B5044663B190F8502004
:10908400012A08D190F82810C1F1200111F0FF0144
:1090940001D05C3098472046BDE8104000F061BD27
:1090A40038B583689A42044650D101294FD1002330
:1090B40080F87C3080F85030836D03B1984794F881
:1090C400413003F02803282B40D194F87C50002D24
:1090D4003CD00521204602F067F994F84030012B7A
:1090E40034D0012384F8403094F841302A2B03D142
:1090F4000221204602F058F9292384F84130202324
:1091040084F842302346002153F85C2B6164506894
:1091140020F40040506065856362638D23854FF0C1
:109124000073E36290692C4B6363C50344BF08205A
:10913400D06184F8401029498B424AD028498B4297
:109144000CBFB823FA2311680B43136038BD90F8A1
:10915400413003F028030125282B80F85050F5D125
:10916400062102F021F994F84030AB42EED094F895
:10917400413084F84050292B03D12946204602F07F
:1091840013F92A2384F841302025234684F84250D9
:1091940053F85C2B00216164506820F40040506057
:1091A40065856362638D23854FF00073E362906984
:1091B400094B6363C0035CBF0820D06184F840108E
:1091C40006498B4205D006498B420CBFB823FC23C9
:1091D400B9E7B823B7E700BFFB9F0008ABA10008BD
:1091E4008D9F0008024BD86C08B101F0A1BF7047F5
:1091F400A0020020024B186C08B101F099BF70471F
:10920400A0020020024B986B08B101F091BF704797
:10921400A0020020024BD86908B101F089BF704751
:10922400A0020020024B986908B101F081BF704789
:10923400A0020020024B586908B101F079BF7047C1
:10924400A0020020024BD86808B101F071BF70473A
:10925400A0020020024B986808B101F069BF704772
:10926400A0020020024B586808B101F061BF7047AA
:10927400A002002010B5064C206808B101F058FF88
:10928400E06B18B1BDE8104001F052BF10BD00BF43
:10929400A0020020836C2BB1027F012A02D100219D
:1092A40004381847704708B5431C12D0214B984224
:1092B4003DD019D8A3F59233984230D00BD8B0F1F1
:1092C400804F28D0A3F58063984226D01A4803F033
:1092D400ABFC002008BD194B984222D003F58063F3
:1092E4009842F3D1372008BD154B98421FD009D8B6
:1092F400A3F58053984216D003F540639842E5D114
:10930400182008BD0F4B98420FD003F50063984214
:10931400DCD14E2008BD1C2008BD1D2008BD1E2028
:1093240008BD362008BD2C2008BD1A2008BD192010
:1093340008BD00BF002C014052DB000800100040B3
:1093440000440140004801400368594A93428CB0EC
:109354002CD102F56442916941F4006191619269F2
:1093640002F400620192019A524A1060524A9342F6
:109374003CD102F5FE32D16941F02001D161D269BC
:1093840002F020020692069A4A4A90614B4A93429E
:109394003BD14B4B9A6942F480129A619B6903F466
:1093A40080130B930B9B434BD8642EE0B3F1804F97
:1093B4000CD1434AD16941F00101D161D26902F073
:1093C40001020292029A3B4A5060CFE73D4A93421F
:1093D4001DD102F50332D16941F00201D161D26994
:1093E40002F002020392039A324A9060364A934290
:1093F4001DD1334B9A6942F400529A619B6903F47C
:1094040000530793079B2B4BD8610CB070472F4A2E
:1094140093421CD102F50232D16941F00401D161B9
:10942400D26902F004020492049A224AD060284AC3
:1094340093422CD1224B9A6942F480329A619B69FF
:1094440003F480330893089B1A4B9863DDE7214AA1
:1094540093428BD102F50032D16941F01001D16100
:10946400D26902F010020592059A124A50611A4A12
:1094740093428BD1124B9A6942F480229A619B6980
:1094840003F480230A930A9B0A4B1864BDE7134A2A
:109494009342ECD10A4B9A6942F400329A619B6977
:1094A40003F400330993099B024BD863ADE700BF73
:1094B400002C0140A0020020001400400050014094
:1094C4000010024000040040003401400008004045
:1094D40000400140001000400048014000440140A9
:1094E4001549D1F8883043F47003C1F88830134B20
:1094F4001A6842F001021A605868114A02405A6020
:109504001A6822F0847222F480321A601A6822F4F3
:1095140080221A605A6822F4FE025A60DA6A22F043
:109524000F02DA62186B074A02401A6300229A603B
:10953400054B8B60704700BF00ED00E00010024057
:109544000CC07FF8CCFC00FF00800008104A936D2B
:10955400996811F4805F114607D0DA68D20541BFDB
:10956400DA68D2B262F4C072DA609A68900407D5FD
:10957400DA68920541BFDA68D2B262F42072DA6026
:10958400044B4FF400325A61012381F8753070475F
:10959400A002002000040140431C04D00C3111F946
:1095A4000C3C5A1C01D100207047984201F10C0177
:1095B400F5D101207047431C04D091F900305A1CA6
:1095C40001D118467047984201D1886870470C3120
:1095D400F3E72DE9F04104468AB080B1B94990F926
:1095E4008800FEF79DFE94F98950B749064628463F
:1095F400FEF796FE00B12EB9B44803F015FB0AB08D
:10960400BDE8F081864218BF0020206008B9B04848
:10961400F3E7B04B984240F0BB8003F55843DA6857
:1096240042F48042DA60DA6822F48042DA609A69AD
:1096340042F480429A619B6903F480430093009B47
:10964400002384F87430252384F88A30C5F303108A
:10965400FEF79AFE94F989509B4980462846FFF705
:10966400AAFF012700FA07F300F0070203F0100332
:109674001343069305F00F05C0F30113C0F306204E
:1096840007FA05F505A907930990032340460893B3
:10969400059500F099FA94F98800C0F30310FEF7D9
:1096A40073FE94F98880874905464046FFF783FF97
:1096B400430000F0070208F00F08C0F3011003F0A4
:1096C4001003134307FA08F7079005A928460597DE
:1096D400069300F079FA0C2094F874207E4BA06174
:1096E4000020261DE0612062A062606294F86D0093
:1096F40043F822602568A16FE26FD4F88070D4F833
:1097040084306560A160E2602761636100F0FF0E50
:1097140008B984F86CE0242084F86D00286820F0EF
:1097240001002860D5F800E06C481A4342F00C02AE
:109734000EEA000002432A606B6823F440533B4363
:109744006B60AB6823F43063AB60624B9D4240F0C6
:109754008C8003F55843624A1B6B03F00303D35C0C
:10976400082B3FF64CAF01A252F823F08F98000863
:1097740079990008B3980008039600087D9A0008B8
:10978400039600080396000803960008839A0008CD
:10979400544B984217D103F5E6331A6942F4003268
:1097A4001A611A6922F400321A61DA6942F4003249
:1097B400DA61DB6903F400330193019B012384F82C
:1097C4007430262340E7484B984217D103F5E4331D
:1097D4001A6942F480221A611A6922F480221A61F9
:1097E400DA6942F48022DA61DB6903F480230293AC
:1097F400029B022384F87430272325E73B4B9842CD
:1098040017D103F5E2331A6942F400221A611A6986
:1098140022F400221A61DA6942F40022DA61DB6977
:1098240003F400230393039B032384F87430342349
:109834000AE72F4B98427FF409AF03F5E0331A6926
:1098440042F480121A611A6922F480121A61DA69E8
:1098540042F48012DA61DB6903F480130493049BFD
:10986400042384F874303523EEE61E4B9D4241D127
:1098740003F5E6331B6B03F44033B3F5803F00F08C
:10988400FB800CD8002B7FF4BAAE01F049FDA3682D
:1098940000EB5300B0FBF3F080B2E86074E0B3F582
:1098A400003F00F0EC80B3F5403F7FF4A8AE4B08D6
:1098B40003F5F40303F59053B3FBF1F39BB2EB60B0
:1098C40062E000BFD8D900085CDA00086ADB00084F
:1098D4009ADB00080038014028010020F369FFEFFB
:1098E4006DD700080044004000480040004C004090
:1098F400005000406A4B9D4210D103F5E4331B6BCA
:1099040003F44023B3F5802F00F0B680BAD9B3F541
:10991400002F00F0B480B3F5402FC6E7614B9D42A1
:1099240010D103F5E2331B6B03F44013B3F5801F2E
:1099340000F0A280A6D9B3F5001F00F0A080B3F513
:10994400401FB2E7584B9D427FF459AE03F5E03314
:109954001A6B02F44002B2F5800F00F08D8002D839
:10996400002A92D04BE6B2F5000F00F08880B2F5E1
:10997400400F9AE701F0BCFCA36800EB5300B0FB76
:10998400F3F04A4B80B2D860A26A6368002A48D0D8
:10999400D70705D55968E06A21F4003101435960BD
:1099A400950705D55968206B21F48031014359602E
:1099B400500705D55968606B21F480210143596033
:1099C400110705D55968A06B21F400410143596082
:1099D400D70605D59968E06B21F48051014399605D
:1099E400950605D59968206C21F4005101439960CE
:1099F40050060ED55968606C21F480110143B0F50E
:109A0400801F596005D15968A06C21F4C00101433D
:109A14005960110605D55A68E16C22F400220A4304
:109A24005A605A6822F490425A609A6822F02A02D4
:109A34009A601A6842F001021A60002222671C4AE6
:109A440015681B681A071ED463681B685B070AD570
:109A54006FF07E432A464FF48001304600F066FFE3
:109A640000287FF4CCAD202384F86D3084F86E3068
:109A7400002384F86C30C2E501F06AFC07E74B0868
:109A840003F5004318E76FF07E432A464FF40011B4
:109A9400304600F04BFF00287FF4B1ADD4E700BF9F
:109AA40000480040004C0040005000400038014095
:109AB400D807002038B5002580F8425090F841308E
:109AC400292B04460AD1282380F84130212303633B
:109AD400012101F069FC84F8405038BD90F8413010
:109AE4002A2BFAD1282380F8413022230363022150
:109AF400EFE7174B10B52022C362002303634363CF
:109B040080F8412080F842304B07044611D5436A5F
:109B14005A1C42620268526A1A70038D4BB1013BAF
:109B24000385438D013B9BB24385436C43F004039F
:109B340043642046072101F037FC23681022DA61D0
:109B4400002384F840302046BDE81040FFF792BA65
:109B54000000FFFF0268436B9169126803B1184764
:109B6400704790F84130202B0BD10268282380F8ED
:109B74004130054B4363136843F0B803136000207E
:109B840070470220704700BFFB9F00080C4B5A69C6
:109B9400024213D058610023012803F1010202D0CC
:109BA40040081346F8E71422DBB25343054A181D54
:109BB4001044816811B11A4413691847704700BFF3
:109BC40000040140780300202DE9F74FD1F800800C
:109BD400DFF89091614A002338FA03F402D103B00C
:109BE400BDE8F08F4FF0010E0EFA03FE18EA0E06E0
:109BF40000F0A6804C6824F01007022F16D14FEA1B
:109C0400D30A00EB8A0A03F0070BDAF820504FEA74
:109C14008B0B4FF00F0C0CFA0BFC25EA0C0C0D69A6
:109C240005FA0BF545EA0C05CAF820504FEA430A39
:109C34000325D0F800B005FA0AF5ED4304F0030C4F
:109C44000BEA050B0CFA0AFC013F4CEA0B0C012F42
:109C5400C0F800C011D8876807EA050BCF6807FA77
:109C64000AFC4CEA0B078760476827EA0E0EC4F328
:109C740000179F4047EA0E074760C7683D408F685A
:109C840007FA0AF73D43C560E50059D5D9F81850DD
:109C940045F00105C9F81850D9F8185023F0030706
:109CA40007F1804705F0010507F58037019503F0BA
:109CB400030C019DBD684FEA8C0C4FF00F0E0EFA99
:109CC4000CFEB0F1904F25EA0E0E3BD0244DA84275
:109CD4003AD005F58065A84238D005F58065A842DC
:109CE40036D005F58065A84234D005F58065A842D4
:109CF40032D005F58065A84214BF0725062505FA6C
:109D04000CF545EA0E05BD601568F74314F4803F71
:109D14000CBF3D4035431560556814F4003F0CBF3B
:109D24003D4035435560956814F4801F0CBF3D4099
:109D340035439560D568A40254BF3D403543D56092
:109D4400013349E70025DAE70125D8E70225D6E7FC
:109D54000325D4E70425D2E70525D0E70004014014
:109D6400000400480010024010B590F82120022A97
:109D740003D004228263012010BD0268C46B116801
:109D8400436B21F00E011160116821F00101116093
:109D9400026C012101FA02F26260002480F82110B1
:109DA40080F8204013B19847204610BD184610BDD6
:109DB4000023354A10B580F84230C2624385436CB3
:109DC4001943416490F84130282B044607D090F899
:109DD4004130292B03D090F841302A2B22D1032182
:109DE400204601F0E1FA282384F84130002323635C
:109DF400264B6363236819681A6811F480411ED0E6
:109E040022F48042A06B1A60214B4363002384F840
:109E14004030FFF7A9FF002835D0A06B436BBDE8A5
:109E240010401847072101F0BFFA94F84130602B25
:109E34001CBF202384F8413000232363D9E712F4A4
:109E440000420DD01A68E06B22F400421A60104BF5
:109E5400436384F84010FFF787FFA0B1E06BDDE7B0
:109E640094F84130602B05D1202384F8413084F8E4
:109E7400402010BD94F8513084F840201BB920468E
:109E8400BDE810406DE610BD0000FFFFFB9F000819
:109E9400A9AD000838B5036820220446DA61082217
:109EA400DA610D46072101F07FFA23685A6842F40B
:109EB40000425A605A6822F0FF7222F48B3222F474
:109EC400FF7222F001025A60204601F09BFA2268D8
:109ED4001368580402D41368190409D594F841305E
:109EE400212B0CBFA36BE36B1B685B689BB2638580
:109EF400638D9BB21BB1636C43F0040363646B0713
:109F040010D5636A526A591C61621A70238D4BB171
:109F1400013B2385638D013B9BB26385636C43F0F6
:109F2400040363640023236384F842306363636C33
:109F340063B1616C2046FFF73BFF94F84130282B56
:109F44001FD129462046BDE83840D2E5E26A12F521
:109F5400803F0BD00B4AE262202284F8412084F82F
:109F640040302046BDE83840FFF784B894F84120DB
:109F740084F84030222A4FF0200284F8412000D196
:109F840038BD38BD0000FFFF10B590F84030012BFC
:109F940004462ED0012380F84030C80619D5D306D4
:109FA40017D594F841302268212B0CBFA36BE36BC7
:109FB4001B685B68B3FA83F310215B09D1611BB1A1
:109FC400002084F8400010BD636C43F00403636414
:109FD400F6E7080705D5130703D523680822DA61D5
:109FE400EEE78806ECD59306EAD52046FFF752FF44
:109FF400E6E7022010BD2DE9F84390F84030012B2C
:10A0040004460E46174600F0CB800123CD0680F8A7
:10A0140040303ED5D0063CD5638D9BB28BBBE36A02
:10A02400B3F1007F03D0E36AB3F1007F14D194F855
:10A034004130282B10D131462046FFF75AFDB20695
:10A0440005D5BB0603D531462046FFF723FF002084
:10A0540084F84000BDE8F883E36A13F5803F236881
:10A064000CD094F84120292A08D11022DA61204624
:10A0740001F0C8F92046FFF71DFDE0E71022DA6180
:10A08400DDE723681022DA61636C43F00403636440
:10A09400D5E771071AD57A0718D5638D9BB263B1DA
:10A0A400636A5A1C62622268526A1A70238D013BE9
:10A0B4002385638D013B9BB26385638D9BB2002B2B
:10A0C400BDD1E36A13F5803FD4D1B8E7330746D551
:10A0D4003D0744D594F8413003F02803282B236826
:10A0E40037D19A69E1689D6902294FEA1545C2F39F
:10A0F400004805F0FE059A68D3F80C9020D1C2F30D
:10A10400090285EAD21515F006050FD1A16C0131BB
:10A11400A164A16C022992D10821A564D96184F8B3
:10A12400405041462046FEF7BBFF88E70421204605
:10A1340001F03AF9002384F8403009F0FE02F0E718
:10A144000421204601F030F9002384F840302A46E7
:10A15400E7E70822DA61002384F840306FE7B007AC
:10A164007FF56DAFB9077FF56AAF638D9BB26BB1B5
:10A17400636A2268591C61621B789362638D013B98
:10A184009BB26385238D013B238558E7E36AB3F1D2
:10A19400807F3FF46FAFE36A002B3FF46BAF4EE771
:10A1A4000220BDE8F88370B590F84030012B0446D6
:10A1B40000F0A480012380F8403011F010001DD07D
:10A1C400D3061BD522684E491023D361636C43F038
:10A1D40004036364636B8B420ED04A498B420CBF09
:10A1E4006023F42311680B431360204601F00AF93D
:10A1F400002084F8400070BD6023F3E70E063ED5CE
:10A2040055063CD523681A6822F040021A60628D14
:10A2140092B2002A2ED05A68618D89B2FF2999BF63
:10A22400618D2185FF2121855968208D21F07F7161
:10A2340021F45831C2F30902C6B221F47F7142EA13
:10A24400064221F003018CBF4FF080754FF000757A
:10A254000A432A435A60628D121A92B2628594F8B4
:10A264004120222A1A680CBF42F4004242F4804280
:10A274001A60BDE740212046FFF79AFDB8E789063A
:10A28400B6D59306B4D523682022DA615A6822F041
:10A29400FF7222F48B3222F4FF7222F001025A6020
:10A2A400002222636263A2F58032E26228B11022A6
:10A2B400DA61636C43F004036364204601F0A2F89E
:10A2C4000321204601F070F8636C1BB994F8412017
:10A2D400602A01D1616CCEE794F84120212A07D18C
:10A2E400202284F8412094F8422084F842307FE709
:10A2F40094F84120222A7FF47BAFF1E7022070BD5D
:10A30400ABA100088D9F0008036899691A6810B40E
:10A31400CC0508D5140606D5446C44F00104446405
:10A324004FF48074DC614C0508D5140606D5446CE2
:10A3340044F0080444644FF48064DC61890508D562
:10A34400120606D5426C42F0020242644FF40072D7
:10A35400DA61436C13F00B0F03D0416C5DF8044BCE
:10A3640026E55DF8044B7047174B30B5DC68C4F341
:10A374000224C4F10703251D042B28BF0423062D42
:10A384004FF0010505FA03F303F1FF338CBF033CDF
:10A3940000241940A14005FA04F4013C224000289D
:10A3A40042EA01024FEA0212ADBF00F1604000F040
:10A3B4000F00064B00F56140B5BFD2B2D2B21A54B9
:10A3C40080F8002330BD00BF00ED00E014ED00E094
:10A3D400002808DB4209012300F01F0003FA00F003
:10A3E400014B43F82200704700E100E0044B4FF4B6
:10A3F4000012C3F88421034B186900F0ECBC00BFC1
:10A4040000E100E028010020044B4FF48012C3F85F
:10A414008421034BD86800F0DEBC00BF00E100E0FB
:10A4240028010020044B8022C3F88421034B986840
:10A4340008B100F0D0BC704700E100E02801002022
:10A44400034B4022C3F88421024B586800F0C3BC7C
:10A4540000E100E028010020034B2022C3F88421FE
:10A46400024B186800F0B7BC00E100E028010020AE
:10A474000A4AD3695B684FF6FE71D962D96841F024
:10A484000201D960D96821F00101D9604FF6FF714A
:10A494009963002382F82830536270471803002020
:10A4A4002DE9F041A44CE36903204FF6FF75022621
:10A4B400002794F82820092A00F2C881DFE812F066
:10A4C4000A00A1001900EE003E014E016201920152
:10A4D400BA01A401E36993F88C30002B00F0898061
:10A4E4000023636384F85C30FF2263620123A26566
:10A4F4006365E26992F88C30002B66D1626D1AB103
:10A50400A36DB3FA83F35B090022626294F85C20C2
:10A51400002A36D1656B072D22DD002B51D0E2785D
:10A52400207940EA022094F90520002A10DA18B1B3
:10A53400FEF7AAF8C343DB0F94F8BC2452070CD4EB
:10A54400A56194F8BC349B071BD5CC23636218E047
:10A55400236AC11A4B424B41EEE793B1A561F4E77C
:10A56400012D2ED194F83830A363CC2B03D0E26AAA
:10A57400236B9A4205DD226C1AB1E36A002B00F3C7
:10A584006881E369606A5B6841F2E83140F2314214
:10A59400002808BF0A46DA626FF001021A61DA681D
:10A5A40042F00102DA606FF002021A61DA6842F0E6
:10A5B4000202DA60002384F85C30032384F8283034
:10A5C40017E00023A3610C23C0E7536840F2424222
:10A5D400DA626FF0010100225A621961D96841F010
:10A5E4000101D960012384F82830A263E264A364E2
:10A5F4002365E369002283F88C2083F88D20BDE86D
:10A60400F081E56995F88DE0BEF1000F38D16B68F3
:10A614005F6BE36C03F14402BA4218DA6833A16C4D
:10A62400A06B226DE364002603F1440847459C4671
:10A6340030DDB1F5807F03F1680324DD26B1C4F871
:10A644004CC0A164A0632265A36C5B00A364BEF14B
:10A65400000FCED0636D226D1340626B6365172AC1
:10A6640006DC531CA16B6363A36DA1544B40A3652B
:10A67400022384F828306B684FF4D072DA62B8E7AA
:10A6840040F24247C5E7B2FA82F208435209490050
:10A694000126C9E7002ED7D0E364D2E793F88C20D3
:10A6A40012B184F8287004E7636AC3B1E2636822D4
:10A6B400E3695B689A632332DA626FF001021A611C
:10A6C400DA6842F00102DA606FF002021A61DA68B5
:10A6D40042F00202DA600023636304236EE7E16A56
:10A6E400226B914206DD226C1370626C22646364F7
:10A6F400E362E363236C002B00F0A8801A78C2F3B2
:10A704008101682201FB0222597901F00F0108310D
:10A71400E163E16A0129CBD1197801F0DF011970F5
:10A72400E36B206C013BC15C81F02001C154E36AFE
:10A734000133E362BCE700BF1803002093F88C20C8
:10A7440062B15A68D2F824E0916B0A398E4503D27B
:10A75400956384F82860ACE605232FE7636AF3B1B8
:10A76400636AA363A36B002101221A424FEA4202E7
:10A774001CBF83F480730121FF2AF6DD01B1A363BA
:10A784000123A364A06BA26C682310424FEA420128
:10A794000BD0B2F5807F08DC0A466833F5E7636BBB
:10A7A400226C591C6163D35CDBE7682B0CBF062267
:10A7B4000722B1F5007FA16484F8282054DD616B81
:10A7C400E26B914203F59C7302DA626A002A48D074
:10A7D400092247E0D16821F00201D1606FF0020143
:10A7E40011614EE0E3695B68596B9A6B453A91429B
:10A7F40008D24FF6FF729A63012384F8283084F854
:10A804005C30F6E60623D9E6E3695B6841F2504220
:10A81400DA626FF002021A61DA6842F00202DA6068
:10A82400636A1BB1002363620823C7E6E36A01334A
:10A83400E362F9E793F88C202AB15A68526BB2F5B7
:10A84400936F7FF6D6AE84F8280032E6FFF710FE49
:10A85400CFE600231370626C22646364E362E363F3
:10A864008FE6052284F8282094F82820072AE26934
:10A874005268AFD16FF002011161D16841F0020159
:10A88400D16094F82820092A0BBFE269E169526873
:10A89400496813BFA3F123024FF6FF7191638A63E2
:10A8A400E2695268D362A4E690F86A30202B3BD167
:10A8B400002937D090F86830012B35D0012380F877
:10A8C4006830A0F85830A0F85A3083684165B3F571
:10A8D400805F19D10369ABB940F2FF13A0F85C3073
:10A8E40000232222C36680F86A20026880F8683058
:10A8F400916841F001019160116841F49071116017
:10A9040018467047FF23E9E723B90369002BF9D000
:10A914007F23E3E7B3F1805FE2D10369002BF7D033
:10A924003F23DBE7012070470220704770B50468BD
:10A93400104EE56931EA050501D1002070BD5D1CAA
:10A94400F7D08BB9236823F4D0732360A36823F072
:10A954000103A360202380F8693080F86A30002363
:10A9640080F86830032070BDD6F8C054AD1AAB42ED
:10A97400DFD2E7E71803002010B507490446042096
:10A98400FDF78DFD30B14FF0904310220CB19A6168
:10A9940010BD9A6210BD00BFDC0700202DE9F04114
:10A9A4003B2890B056D8A84C204490F93850681CE5
:10A9B40050D0A6492846FDF772FD4FEA151805F058
:10A9C4000F0798B304F174012846FEF7E5FD00284B
:10A9D40043D004F174012846FDF7A2FC0446C8B133
:10A9E4002846FDF7B1FC30F0100213D12368012191
:10A9F40001FA00F023EA0000206002238DF804101D
:10AA040093498DF80430CB6923F00053CB61049251
:10AA14008DF804208D4908F00F00012303FA07F292
:10AA240051F8203023EA020341F8203008F00F00E7
:10AA3400FDF7AAFC012303FA07F7032201936946F1
:10AA44000023009703920293FFF7BEF8814928463A
:10AA5400FDF718FD10B0BDE8F08104F19801284617
:10AA6400FEF79AFD0028D5D004F198012846FDF799
:10AA740057FC04460028CDD02846FDF773FC142863
:10AA8400064600F2DC80744BC340D907C2D5734933
:10AA94002846FEF790FDC202236A4CD5042202FA2E
:10AAA40006F623EA06062662236A2362226A41F234
:10AAB40011131A4208D1226A40F244431A4202BFD7
:10AAC400636C23F400436364226A41F211131A4253
:10AAD40008D1226A40F244431A4203D1236823F086
:10AAE4000103236002238DF83D30226A41F21113E1
:10AAF4001A4208D1226A40F244431A4202BF236830
:10AB040023F001032360564B9C4253D1504A93696E
:10AB140023F400639361534B9C425CD14C4AD36948
:10AB240023F02003D361504B9C425CD1484A936983
:10AB340023F4801356E0012202FA06F623EA0606FD
:10AB44002662236A2362464B9C4213D003F50063BA
:10AB54009C420FD003F540639C420BD003F5806305
:10AB64009C4207D003F580639C4203D003F5006345
:10AB74009C420DD1226A41F211131A4208D1226A71
:10AB840040F244431A4202BF636C23F400436364FB
:10AB9400226A41F211131A4208D1226A40F2444354
:10ABA4001A4202BF236823F00103236001238DF8B6
:10ABB4003D3097E7B4F1804F05D1254AD36923F09E
:10ABC4000103D361A7E7294B9C4210D1204AD369E2
:10ABD40023F00203D361264B9C4210D11C4A936993
:10ABE40023F40053936100238DF83D3012E7214B89
:10ABF4009C420CD1164AD36923F00403D3611E4B43
:10AC04009C4214D1124A936923F48033EAE71B4B24
:10AC14009C4280D10E4AD36923F01003D361184BB0
:10AC24009C4280D10A4A936923F48023DAE7154BC6
:10AC34009C42F4D1064A936923F40033D2E73C28BA
:10AC44007FF4E8AE23E700BF74D70008FC070020B8
:10AC540000100240DC070020111111000CD800087C
:10AC6400002C01400014004000500140000400404A
:10AC74000034014000080040004001400010004042
:10AC84000048014000440140184B1A6A12124270F5
:10AC94001A6A827030B50022FF24551C92B28A428F
:10ACA40003DA825C54402A46F7E744545A6C002A7B
:10ACB400FDD11A6CC2B9186472B693F8282002F058
:10ACC400FF017AB90322D96283F82820DB695B6823
:10ACD4000122DA626FF001021A61DA6842F00102BD
:10ACE400DA60596262B630BD5864E5E718030020A3
:10ACF40008B5044B2BB10448FEF7B5F808B1AFF31F
:10AD0400008008BD00000000B804002010B590F8D1
:10AD14006A30222B036833D1998C8368B0F85C20A5
:10AD2400B3F5805F02EA0102436D0DD1016959B99F
:10AD340023F8022B4365B0F85A40013CA4B2A0F8B2
:10AD44005A402CB1002010BD591C41651A70F2E71D
:10AD540003681A6822F490721A609A6822F0010259
:10AD64009A60202380F86A30FEF761F90428E9D854
:10AD7400064A074B53F8203052F820009847E1E781
:10AD84009A6942F008029A61022010BD5001002025
:10AD94003C010020406A0023A0F85A30A0F8523049
:10ADA400FEF730B9406A0268536843F400435360C5
:10ADB400826B00235363C26B536390F84130602B62
:10ADC40003D1202380F84130704790F851300BB9FB
:10ADD400FEF7C7BE70470368DA69196870B512F0E8
:10ADE4000F05044606D1960604D58E0602D5BDE8A5
:10ADF40070408BE79868002D68D010F0010502D1EF
:10AE040011F4907F62D0D60707D5C80505D5012077
:10AE14001862E06E40F00100E066960706D52DB199
:10AE240002201862E06E40F00400E066500706D588
:10AE34002DB104201862E06E40F00200E0661607AF
:10AE440007D5880600D425B108201862E36E0343B1
:10AE5400E366E36E002B00F0A880920604D58B060F
:10AE640002D52046FFF752FFE36E13F0080F236864
:10AE740003D19D6815F0400523D01A6822F490721E
:10AE84001A609A6822F001029A60202284F86A20EB
:10AE94009A68560610D59A68606E22F040029A604D
:10AEA40050B1424B4363FEF75FFF00287DD0606ED4
:10AEB400BDE87040436B18472046BDE87040FEF77C
:10AEC400A1B82046FEF79EF8E56670BDD50215D5FB
:10AED400400213D54FF480121A62202384F869309B
:10AEE400204684F86A30FEF7A2F8314B53F820105C
:10AEF40020467531BDE87040FFF7D6BC16062BD549
:10AF04000D0629D594F86920212A4ED1B4F852208F
:10AF140092B242B91A6822F080021A601A6842F0AA
:10AF240040021A6070BDA268B2F5805FE26C0ED177
:10AF3400216961B932F8021BC1F308011985E26481
:10AF4400B4F85230013B9BB2A4F8523070BD511C8E
:10AF5400E16412781A85F3E7500626D54A0624D50B
:10AF64001A6822F040021A60202384F869302046CF
:10AF7400FEF75DF8042818D80E4B53F820400E4B0A
:10AF840053F820302046984701300ED0D4F894303E
:10AF9400B4F89A1094F8742013FA81F1074BBDE8C1
:10AFA400704053F8220000F04DBA70BD99AD00080E
:10AFB400500100208C02002078020020280100208B
:10AFC400036A23F010030362036A70B5446882695C
:10AFD4000D6822F0807222F4E64242EA05228D686E
:10AFE40023F0200343EA05131A4DA84207D005F5C0
:10AFF4000065A84203D005F5E055A8420DD1CD68FF
:10B0040023F0800343EA0513124DA84223F04003C2
:10B0140012D005F50065A8420ED00F4DA8420BD002
:10B0240005F58065A84207D005F58065A84203D0E0
:10B0340005F50065A84206D124F440658E694C6983
:10B04400344345EA8404446082614A68826303624B
:10B0540070BD00BF002C014000400140324A03682B
:10B06400904212D0B0F1804F0FD0A2F594329042AA
:10B074000BD002F58062904207D002F596329042DE
:10B0840003D002F5E052904215D14A6823F07003D0
:10B094001343254A90421DD0B0F1804F1AD0A2F537
:10B0A4009432904216D002F58062904212D002F59A
:10B0B400963290420ED01D4A90420BD002F5806227
:10B0C400904207D002F58062904203D002F50062FC
:10B0D400904203D1CA6823F4407313434A6923F0AE
:10B0E4008003134303608B68C3620B6883620E4B57
:10B0F400984213D003F5006398420FD003F54063E0
:10B1040098420BD003F58063984207D003F580631F
:10B11400984203D003F50063984201D10B6903639D
:10B1240001234361704700BF002C014000400140EF
:10B1340003681A69910710B504460ED5DA689207B8
:10B144000BD56FF002021A61012202779B699B07FB
:10B1540075D0FDF729FE0023237723681A69500769
:10B1640010D5DA6851070DD56FF004021A61022276
:10B1740022779B6913F4407F204663D0FDF714FEC9
:10B184000023237723681A6912070FD5DA6810079A
:10B194000CD56FF008021A6104222277DB69990743
:10B1A400204652D0FDF700FE0023237723681A6956
:10B1B400D20610D5DA68D0060DD56FF010021A61E8
:10B1C40008222277DB6913F4407F204640D0FDF744
:10B1D400EBFD0023237723681A69D10709D5DA68C0
:10B1E400D20706D56FF001021A61636C201F03B108
:10B1F400984723681A69140605D5DA68100644BF0F
:10B204006FF080021A611A69D10505D5DA68120651
:10B2140044BF6FF480721A611A69540605D5DA685E
:10B22400500644BF6FF040021A611A69910605D5B1
:10B23400DA68920644BF6FF020021A6110BDFEF76F
:10B2440029F888E7FEF726F89AE7FEF723F8ABE734
:10B25400FEF720F8BDE70368012202FA01F11A6A39
:10B2640022EA01021A621A6A1143114A19629342CC
:10B2740013D002F5006293420FD002F5406293426C
:10B284000BD002F58062934207D002F580629342AC
:10B2940003D002F50062934203D15A6C42F4004297
:10B2A4005A641A6842F001021A600020704700BF15
:10B2B400002C01400F2303600B4B5A6802F0030279
:10B2C40042605A6802F0F00282605A6802F4E06256
:10B2D400C2605B68DB0803F4E0630361034B1B6833
:10B2E40003F007030B607047001002400020024087
:10B2F400084B4FF460525B6892FAA2F2B2FA82F2FF
:10B3040003F46053D340044AD35C044A1068D84021
:10B31400704700BF00100240E0DA0008A4000020DB
:10B32400084B4FF4E0625B6892FAA2F2B2FA82F23E
:10B3340003F4E063D340044AD35C044A1068D84061
:10B34400704700BF00100240E0DA0008A4000020AB
:10B35400124B5A6802F00C01082910B51BD14FF4A6
:10B36400701191FAA1F10F20B1FA81F1DB6A90FA20
:10B37400A0F00B4CB0FA80F003F00F0302F470124B
:10B38400C340CA40234422441B7A0648B0FBF3F36B
:10B39400107E584310BD034810BD00BF001002408A
:10B3A400E0DA000800127A0011F0010307D090F8E7
:10B3B400413003F02803282B0CBF4223F2238A07D1
:10B3C40009D590F8412002F02802282A0CBF43F046
:10B3D400440343F0F4034A0701F0110248BF43F069
:10B3E400B80301F01201112A08BF43F09003122997
:10B3F40001680A6808BF43F0600322EA03030B6094
:10B404000020704703689A69910744BF00229A623A
:10B414009A69D2075EBF9A6942F001029A61704745
:10B42400074938B5A1F5A075A1F11404E3681039F2
:10B4340013B1032208469847AC422146F4D138BDE3
:10B44400B804002090F86930202B1AD1B9B190F8D3
:10B454006830012B15D00123A0F85230C164A0F844
:10B464005030016800232122C36680F8683080F8D8
:10B4740069200A6842F080020A6018467047012079
:10B4840070470220704738B506244FF48065A8B28F
:10B49400FEF77CFB013C4FEA4505F8D138BD38B5D1
:10B4A40005242025A8B2FEF771FB013C4FEA4505AF
:10B4B400F8D138BD1020FEF769BB0820FEF766BB43
:10B4C4000220FEF763BB0120FEF760BB01F06CBEF7
:10B4D40001F06ABE01F068BE01F05EBE01F05CBE20
:10B4E40000000000000000000000000001F0FF0167
:10B4F400102A2BDB10F0070F08D010F8013B013A9B
:10B504008B422DD010F0070F42B3F6D1F0B441EACC
:10B51400012141EA014122F007047FF000070023E2
:10B52400F0E80256083C85EA010586EA010685FA38
:10B5340047F5A3FA87F586FA47F6A5FA87F68EB992
:10B54400EED1F0BC01F0FF0102F0070232B110F8B5
:10B55400013B013A83EA010313B1F8D1002070479B
:10B5640001387047002D06BF35460338073815F0FB
:10B57400010F07D1013015F4807F02BF013015F4AB
:10B58400C03F0130F0BC0138704700BF034613F8D8
:10B59400012B002AFBD1181A013870472DE9804885
:10B5A400C34CC44EA7B00D20FFF7F8F904F194077B
:10B5B4004FF4E1330025C4F80C313846062384F8EF
:10B5C4003031C4F81851C4F81451C4F81051FEF7BE
:10B5D40000F894F8083156F8231091F8692091F88E
:10B5E4006A100A4302F02202222A16D006EB8303D1
:10B5F400B14A5A612946012294F91E019F62FEF75D
:10B60400B3FE94F91E01FEF7E3FE94F8083104F248
:10B61400091156F82300FFF747F9A8490420FDF75C
:10B62400BBFF0546002835D0A5490420FCF737FFA9
:10B6340020BBA3490420FCF725FF01271422002185
:10B644000FA801F013F89D490420FCF769FE044695
:10B65400002800F08B830420FCF776FE05460028C2
:10B6640000F01283102840F08183002F40F00E83F5
:10B67400002303930394039B143357E30027DDE76C
:10B6840003F47013B3F5701F40F06D83636843F0E7
:10B69400020367E38B490420FDF77EFF044600287C
:10B6A40000F07D8286490420FCF7F9FE20B9844924
:10B6B4000420FCF7E7FE01254022002116A800F033
:10B6C400D5FF1C2200210FA800F0D0FF7D490420E3
:10B6D400FCF726FE04461690002800F04783142247
:10B6E40000210AA800F0C2FF26A9002341F8743DF6
:10B6F4000AA8FFF7DFFD671C00F0C680724B9C426E
:10B7040000F0BB8200F2AE80A3F592339C4209D0D4
:10B7140000F2A180B4F1804F04D0A3F580639C4271
:10B7240040F0AF800D9CFFF7FBFDB4F5A06F04D093
:10B7340000F2B680B4F5806F00D14000634BB0FBDB
:10B74400F3F3013B1793FE23199300231A931893E1
:10B754001B938DF895308DB35D4C9DF89530042086
:10B76400207003F0FF08FBB956498DF89480FDF76B
:10B7740022FF074616A8FDF7E7FD94F90000C0F381
:10B784000310FCF701FE02230B9303230D9323788C
:10B79400CDF8308003F00F03C7F306279D400AA9B4
:10B7A4000E970A95FEF710FA022317A916988DF83A
:10B7B4009530FFF753FC01238DF895300420FCF7F6
:10B7C400D1FD1428044600F2E384424BC340DD0754
:10B7D40040F1CC8260230F930023119313931293AF
:10B7E400159314936C2310939DF89430012B00F05F
:10B7F400BD8201238DF89430082C4FF002038DF89C
:10B80400953000F0158171D8002C00F0AD80042C27
:10B8140000F0FC8001238DF895302A490023042090
:10B824008DF89430FDF7C7FEC00240F1B381169B3A
:10B83400042202FA04F41A6A22EA04021A621A6A54
:10B8440014431C625A6C42F400425A641A6842F06F
:10B8540001021A608AE2204B9C423FF463AF03F575
:10B8640080635CE71D4B9C4200F0078211D8A3F56E
:10B8740080539C4200F0018203F540639C4200F037
:10B88400FC81174801F0D0F9164801F0CDF90020E9
:10B8940054E7154B9C4200F0F08103F50063EDE79B
:10B8A400B4F5C06F3FF449AFB4F5E06F44E700BFAF
:10B8B400B8040020280100200D8F0008E8D70008F4
:10B8C400FC0700200CD80008002C014018E40300F9
:10B8D4000400002011111100001000400044014038
:10B8E40008DB000838DB000800480140102C00F099
:10B8F400E280142C00F018810C2C8BD1169BB54DD2
:10B904001A6A22F480521A62196A5868DA6922F0B3
:10B91400807222F4E642AB4242F4C04221F4005168
:10B9240013D005F50065AB420FD005F54065AB4279
:10B934000BD005F58065AB4207D005F58065AB42B9
:10B9440003D005F50065AB4201D120F48040586076
:10B95400DA616C221A641962DA6942F40062DA610B
:10B96400DA6922F48062A2E0169B9A4F1A6A22F0E6
:10B9740001021A621D6A59689A6922F4803222F01F
:10B984007302BB4242F0600225F0020013D007F5B7
:10B994000067BB420FD007F54067BB420BD007F5E9
:10B9A4008067BB4207D007F58067BB4203D007F529
:10B9B4000067BB421AD125F00E00864DAB4213D06E
:10B9C40005F50065AB420FD005F54065AB420BD0E1
:10B9D40005F58065AB4207D005F58065AB4203D021
:10B9E40005F50065AB4201D121F4407159609A61BB
:10B9F4006C225A6318629A6942F008029A619A6941
:10BA040022F004029A619A699A6103E70FA91698D1
:10BA1400FFF7D6FA169B13999A6942F400629A6169
:10BA24009A6922F480629A619A6942EA0122EBE7F8
:10BA3400169B68491A6A22F480721A621F6A58684F
:10BA4400DA6922F4803222F073028B4242F06002FF
:10BA540027F4007507D0DFF880E1734503D00EF5B5
:10BA6400E05E734506D18B4227F4606511D05A49D4
:10BA74008B420ED059498B420BD001F580618B4229
:10BA840007D001F580618B4203D001F500618B4240
:10BA940001D120F440505860DA616C22DA631D62EF
:10BAA400DA6942F00802DA61DA6922F00402DA6142
:10BAB400DA69DA61AEE6169B464D1A6A22F48032E0
:10BAC4001A62196A58685A6D22F4803222F07002A0
:10BAD400AB4242F0600221F4003113D005F5006559
:10BAE400AB420FD005F54065AB420BD005F5806540
:10BAF400AB4207D005F58065AB4203D005F5006580
:10BB0400AB4201D120F4803058605A656C229A65AA
:10BB140019625A6D42F008025A655A6D22F0040205
:10BB24005A655A6D5A6575E6169B2A4D1A6A22F4AF
:10BB340080121A62196A58685A6D22F0807222F4CF
:10BB4400E042AB4242F4C04221F4001113D005F5A7
:10BB54000065AB420FD005F54065AB420BD005F54F
:10BB64008065AB4207D005F58065AB4203D005F58F
:10BB74000065AB4201D120F4802058605A656C22E4
:10BB8400DA6519625A6D42F400625A655A6D22F4FC
:10BB94008062C5E7214616A8FFF75DFBE6E030208A
:10BBA400FEF7FCFE2046FEF7E7FEDFE0FEE794F832
:10BBB4008910012940F0AD81196841F00101196033
:10BBC400022384F88930A4E1FFF7AAFB4000C8E10E
:10BBD400FEE700BF002C014000340140004001405A
:10BBE4000A223946B2E249462046FDF7BAF9002353
:10BBF400AB618021BC22112300274FF0010B4FF0D1
:10BC0400E10A8DF85F1016A808218DF858200192DA
:10BC14008DF8593000938DF85A808DF85B708DF84B
:10BC24005CB08DF85DA08DF85E70FFF72DF8C8202C
:10BC3400FCF740FC009B019A8DF8593008218123C0
:10BC440016A88DF858208DF85F308DF85A808DF83D
:10BC54005B708DF85CB08DF85DA08DF85E70FFF7B9
:10BC640013F8C820FCF726FC4FF09042536983F088
:10BC740020035361FFF73CF85AE20E9CFFF738FBB0
:10BC840053E5039503944FE0002FFAD00223BD4FF0
:10BC94008DF84030FB69DFF81C9323F00053FB61FF
:10BCA400002313938DF84030042389F800309DF865
:10BCB400403003F0FF08CBB94046FCF765FBFB6955
:10BCC40043F00053FB61FB69CDF8608003F000533F
:10BCD4000293029B99F8003003F00F020123934072
:10BCE400169316A903231793FDF76EFF0223002171
:10BCF40001208DF8403013918DF840008DF84030CC
:10BD0400236840F6FE72AA4023EA020323602368F4
:10BD1400C022AA4023EA020323608DF84000039165
:10BD24000394002D7FF4A7AC039B08330393039B78
:10BD34004FF4D8621A609DF84130012B16D00223CB
:10BD44008DF8403022680123AB40134323602368FD
:10BD5400002D7FF495AC03F03C033C2B03D16368C6
:10BD640043F00103636001238DF84030864987481E
:10BD7400874CDFF84492DFF84482824FFDF7F1F8F4
:10BD840084498248FDF7EDF84FF47A70FCF792FB92
:10BD9400814B824A9A642046FCF79CFA4FF0FF32AA
:10BDA400226486F8492096F8531096F854207C486B
:10BDB4002E23002589F8003142EA0122012389F863
:10BDC40062504FF0020A89F80131C8F82020042299
:10BDD400C8F81850257188F8285084F82C506563E9
:10BDE400A562C8F8245086F8485086F83F5086F873
:10BDF400415086F8423086F84330C6F83C5186F804
:10BE040040A0C8F830207A6984F83C5042F40032EB
:10BE140084F82430C8F84050D8F81C40C8F844507E
:10BE240088F85C507A617A6902F400320792079AC2
:10BE34007A6942F480227A617A690A9302F4802250
:10BE4400032306920AA9069A0B930C95FDF7BCFEF0
:10BE540008230AA952480C950D950E93CDF828A0F5
:10BE6400CDF82CA0FDF7B0FE402262667F22E26688
:10BE740094F889204B4BA56612F0100F2567A5672F
:10BE8400C4F884503A4623664F4645467FF48EAE46
:10BE9400916941F001019161916901F001010991F8
:10BEA400099994F8891001F0FF0009B984F8880011
:10BEB40000210891196808910899606F21F07001B8
:10BEC40041F040010891089921F002010891089974
:10BED40021F440210891089921F47051089108999E
:10BEE40021F4004108910899014308910899E06FF1
:10BEF400014308910899D4F88000014308910899F6
:10BF04001960012184F8891094F88910C9067FF515
:10BF14004EAEA046244B48F8043BD36943F00203D9
:10BF2400D361D36903F002030593059BC023002268
:10BF34000A930AA902234FF090400B930C920D929E
:10BF44000E93FDF741FE194B4FF000521A6004A9FD
:10BF54000FA8FFF7AFF9129B002B7FF435AEFFF764
:10BF6400DFF923686360124BB0FBF3F00023E36056
:10BF74006361A36194F8413001384FF6FF72A06009
:10BF84001EE000BF0010024024DB0008B8040020BB
:10BF9400EC0500202ADB0008440600200D8300087D
:10BFA40000040048280001400004004000E100E0D3
:10BFB40040420F0004000020D40600201803002093
:10BFC400226103F0FF0993B9404684F84090FDF7DD
:10BFD400BBF96068FDF767F94A460F2140B2FEF7E6
:10BFE400C3F96068FDF75FF940B2FEF7F1F94FF06D
:10BFF400020984F8419008F104016068FFF72EF803
:10C00400012384F8413094F84030012B3FF4E0AD33
:10C01400606884F84190036A604923F00103036275
:10C0240088428369026A16D0B0F1804F13D0A1F51B
:10C03400943188420FD001F5806188420BD001F51C
:10C044009631884207D001F54061884203D001F55A
:10C054008051884201D123F0030343F0010323F00C
:10C06400F00322F00A0242F0020243F0400383612B
:10C074000262836923F00C038361836983614FF057
:10C084000109602384F841904FF0020A16934FF09F
:10C09400000B4FF6FF731793CDF860A0CDF868B08E
:10C0A40016A984F8409084F841A0FEF789FF6368DC
:10C0B4009A6942F400629A619A6922F480629A61F0
:10C0C40099691A9A41EA02229A6184F8419084F8A3
:10C0D40040B09A6922F400629A6184F841A01A6817
:10C0E40042EA09021A6084F84190DA6842EA0A02D4
:10C0F400DA601A6A22F001021A621A6A42EA090232
:10C104001A621A6842EA09021A6004214046FFF7DB
:10C11400A2F897F800315B0705D597F8003183F052
:10C12400840387F800311E4CDFF87C904FF00A0836
:10C13400D6F840717B1C002FC6F84031BFF650ADD5
:10C144002D212046FCF797FE0A2279422046FCF76F
:10C1540018FF49462046FCF704FFAB69002B3FF467
:10C1640048AD1049DFF844A02046FCF7FAFE00274A
:10C17400AB69BB427FF737AD1FB151462046FCF790
:10C18400F0FEE95D10222046FCF7FBFE0137EFE7E5
:10C194003C287FF4EBADFFF71DBB00BF002C014032
:10C1A400B80400202DDB00082ADB0008C0DB0008EF
:10C1B4009A499B48CA689B4B70B54FF6FF042240CE
:10C1C4000243CA601A6842F010021A60CB68234026
:10C1D4000343954CCB6000F0C3F9636813F00C0F74
:10C1E4000AD0636803F00C03082B69D1636803F475
:10C1F400C033B3F5004F63D1022393FAA3F222684C
:10C2040093FAA3F32368F82292FAA2F21021B2FA65
:10C2140082F223F0F80301FA02F213432360636805
:10C2240003F00C03082B6AD04FF0807393FAA3F346
:10C23400B3FA83F303F1845303F584139B000022C0
:10C244001A607A4A16684FF00070012190FAA0F340
:10C25400256890FAA0F3B3FA83F303F01F0301FAFD
:10C2640003F32B4240F08580E36A23F00F03E3627B
:10C27400636823F4761343F4E41363604FF080732C
:10C2840093FAA3F3B3FA83F303F1845303F584130A
:10C294009B000125196016684FF0007191FAA1F313
:10C2A400206891FAA1F3B3FA83F303F01F0305FAAC
:10C2B40003F3034223D113689B1B022BEED91EE028
:10C2C400012292FAA2F3B3FA83F303F1845303F540
:10C2D40084139B0055491A600E68022090FAA0F35B
:10C2E400256890FAA0F3B3FA83F303F01F0302FA6C
:10C2F40003F32B4286D10B689B1B022BEED9494AD0
:10C30400136803F00703012B39D9636823F0F003A2
:10C3140063604FF0007393FAA3F2216893FAA3F3D6
:10C32400B3FA83F303F01F03012202FA03F30B426F
:10C3340031D13F4B4FF47A721B68B3FBF2F3013BEC
:10C34400B3F1807F09D23B4A5360344BF02183F828
:10C3540023100023936007231360364A136843F0C5
:10C3640004031360002211464FF0FF30FDF7FCFF79
:10C3740070BD13689B1B022B7FF668AFBFE7136881
:10C3840023F0070343F002031360136803F0070369
:10C39400022BCED1B9E7636823F0030343F0020311
:10C3A4006360224B196841F28830626802F00C0223
:10C3B400082A22D11B4A136803F00703022B21D851
:10C3C400636823F4E06343F480636360636823F485
:10C3D40060536360FEF7BCFF6368F02292FAA2F236
:10C3E400B2FA82F203F0F003D340134AD35CD8408C
:10C3F4000F4B186000F0B4F89BE71A68521A824297
:10C40400D3D996E7136823F0070343F002031360BC
:10C41400136803F00703022B8BD1D1E700ED00E092
:10C424000003FA050020024000100240D807002053
:10C43400A400002010E000E05DD7000870B5444C73
:10C44400444A4549454E062384F86030072384F85E
:10C454007430082384F88830092384F89C300A2334
:10C46400002584F8B030172384F8C43084F8D83019
:10C4740084F8EC3084F8003184F8143128462823F9
:10C4840084F8283184F83C3184F8503184F86431DC
:10C4940084F8783184F88C31E566C4F88050C4F8A7
:10C4A4009450C4F8A850C4F8BC50C4F8D050C4F890
:10C4B400E450C4F8F850C4F80C51C4F82051C4F83E
:10C4C4003451C4F84851C4F85C51C4F87051C4F8EC
:10C4D4008451C4F8985100F092F84FF47A73C4F878
:10C4E400A83106F10803C4F8A031032384F8BD324F
:10C4F400022384F8BC3204F2B113C4F8C032C4F885
:10C50400A45104F2F1135822294604F53570A4F815
:10C51400C452C4F8C832A4F8C652A4F8CC52A4F841
:10C52400CE5200F0A3F80123C4F8F432283604F5FF
:10C534004B7384F8285084F8F852C4F8D462C4F8D1
:10C54400885384F8B85384F8B953E36170BD00BFCD
:10C55400180300200000002025B4000874D7000848
:10C564000F4B4FF47A721B68B3FBF2F3013BB3F148
:10C57400807F10B511D20B4A53600B4BF02183F826
:10C5840023100024072394600F2113604FF0FF3021
:10C594002246FDF7E9FE204610BD012010BD00BF74
:10C5A400A400002010E000E000ED00E0DFF834D04B
:10C5B400002103E00C4B5B58435004310B480C4BF7
:10C5C40042189A42F6D30B4A02E0002342F8043B95
:10C5D400094B9A42F9D3FCF783FF00F023F8FEF7E6
:10C5E400DDFFFEE70000012070DC000800000020F1
:10C5F4000C0100200C010020C8080020FEE70B46B7
:10C604000146184600F000B810B5054C13462CB18D
:10C614000A4601460220AFF3008010BD204610BD3B
:10C624000000000070B50D4E0D4CA41BA410002595
:10C63400A54209D10B4E0C4C01F07CF8A41BA410AC
:10C644000025A54205D170BD56F82530984701351F
:10C65400EEE756F8253098470135F2E750DC00083C
:10C6640050DC000850DC00086CDC0008024403467F
:10C67400934200D1704703F8011BF9E79368013B2B
:10C68400002B10B4936009DA9469A34202DBCBB2A5
:10C694000A2B03D15DF8044B00F0DEBA1368581C72
:10C6A40010601970C8B25DF8044B7047F8B50646BF
:10C6B4000F461446D518AC4201D1002007E03A4693
:10C6C40014F8011B3046FFF7D9FF431CF3D1F8BD22
:10C6D4002DE9F04F9DB00C4617460393064618B15A
:10C6E40083690BB900F06AFC7C4B9C4257D1746897
:10C6F400A38918075DD52369002B5AD00023099319
:10C7040020238DF8293030238DF82A304FF0010B87
:10C71400B846454615F8013B002B55D1B8EB070A3E
:10C724000BD053463A4621463046FFF7BFFF01304F
:10C7340000F0C480099B5344099398F80030002BFF
:10C7440000F0BC8000234FF0FF320493079305925E
:10C7540006938DF853301A93052229786048FEF722
:10C76400C5FE05F10108049B002831D1D90644BF58
:10C7740020228DF853201A0744BF2B228DF8532012
:10C784002A782A2A2CD0079A00210A20A8460135A3
:10C7940098F80030303B092B6DD971B326E0514B2A
:10C7A4009C4201D1B468A3E74F4B9C4208BFF46894
:10C7B4009EE72146304600F0A1FA00289ED04FF0B3
:10C7C400FF301DB0BDE8F08F252BA7D0A846A0E709
:10C7D400434A801A0BFA00F0184304904546BBE71D
:10C7E400039A111D12680391002A01DB079204E0E9
:10C7F400524243F002030792049398F800302E2B20
:10C8040010D198F801302A2B08F1010137D1039B8C
:10C814001A1D1B680392002BB8BF4FF0FF3308F1B9
:10C8240002080593314D98F8001003222846FEF7BC
:10C834005DFE40B14023401B03FA00F0049B034318
:10C84400049308F1010898F8001029488DF828107D
:10C85400062208F10107FEF749FE002834D0254BD3
:10C8640003BB039B073323F0070308330393099B9C
:10C874004B4409934CE700FB0232012186E7002375
:10C88400059318460A258846013198F80020303A65
:10C89400092A03D9002BC5D00590C3E705FB002066
:10C8A4000123F0E703AB00932246134B04A930465F
:10C8B400AFF30080B0F1FF3F8146D8D1A3895B0676
:10C8C4003FF57DAF09987CE703AB009322460A4B02
:10C8D40004A9304600F088F8ECE700BF10DC00083B
:10C8E400BCDB000830DC0008F0DB0008C2DB000819
:10C8F400C6DB000800000000B1C600082DE9F047BF
:10C9040091461F468A680B69DDF820809342B8BFC0
:10C914001346C9F8003091F8432006460C4612B17C
:10C924000133C9F800302368990642BFD9F80030B2
:10C934000233C9F80030256815F0060507D104F163
:10C94400190AE368D9F800209B1A9D4229DB94F860
:10C9540043302268003318BF012392062ED404F119
:10C96400430239463046C047013021D02368E56888
:10C97400D9F8002003F00603042B08BFAD1AA368FE
:10C9840022690CBF25EAE57500259342C4BF9B1AB2
:10C99400ED184FF000091A344D451BD10020BDE8B5
:10C9A400F0870123524639463046C047013003D14F
:10C9B4004FF0FF30BDE8F0870135C2E7E1185A1C9B
:10C9C400302081F84300224494F8451082F8431043
:10C9D4000233C4E70123224639463046C0470130BA
:10C9E400E6D009F10109D7E72DE9F04317460A7E9D
:10C9F40085B06E2A984606460C460C9B01F1430E00
:10CA040000F0BC801AD8632A2ED00AD8002A00F07D
:10CA1400C880582A00F08A8004F1420584F8422034
:10CA24002AE0642A01D0692AF6D121681A6811F033
:10CA3400800F23D0111D1960136827E0732A00F0BA
:10CA4400B48008D86F2A2AD0702AE5D10A6842F047
:10CA540020020A6003E0752A21D0782ADCD17822EA
:10CA640084F845206E4964E01A6801F14205111DFD
:10CA74001960136884F842300123A3E011F0400FD9
:10CA840002F104011960D7D0B2F90030002B03DAA7
:10CA94002D225B4284F8432062490A2217E0206871
:10CAA400196810F0800F03D0081D18600B6806E0A9
:10CAB40010F0400F01F104001860F7D00B885949B9
:10CAC4006F2A14BF0A220822002084F843006568F4
:10CAD400A560002DC0F29C80206820F00400206036
:10CAE400002B3FD1002D40F095807546082A0BD1CC
:10CAF4002368DA0708D5236962689A42DEBF3023C7
:10CB040005F8013C05F1FF35AEEB05032361CDF8D3
:10CB140000803B4603AA21463046FFF7EFFE013072
:10CB240055D14FF0FF3005B0BDE8F08381F84520C2
:10CB34003C492268186812F0800F00F104051D605A
:10CB440001D0036802E05506FBD50388D00744BF33
:10CB540042F0200222601BB9226822F020022260E7
:10CB64001022B1E77546B3FBF2F002FB1033CB5C45
:10CB740005F8013D03460028F5D1B7E708681A68AF
:10CB8400496910F0800F04D0101D186013681960F3
:10CB940007E010F0400F02F1040018601368F6D0AB
:10CBA4001980002323617546B1E71A68111D1960C5
:10CBB4001568626800212846FEF798FC08B1401BFE
:10CBC400606063682361002384F843309FE723692E
:10CBD4002A4639463046C0470130A2D023689B0715
:10CBE40007D5002504F11909E368039A9B1A9D42AD
:10CBF40005DBE068039B9842B8BF184693E701231E
:10CC04004A4639463046C04701308AD00135EBE701
:10CC1400002BA7D10B7884F8423004F1420565E774
:10CC2400DEDB0008CDDB00080FB40A4B13B51C682B
:10CC340024B1A36913B9204600F0C0F905AB049AE6
:10CC4400A16801932046FFF743FD02B0BDE8104000
:10CC540004B07047A8000020F8B50E4614460546F7
:10CC640018B183690BB900F0A9F9214B9C422AD170
:10CC74006C68A369A360A3891A072ED5236963B3DB
:10CC840023692068C01A6369F6B29842374604DB08
:10CC94002146284600F028F928BBA368013BA3607D
:10CCA40023685A1C22601E7063690130984204D0C4
:10CCB400A389DB0719D50A2E17D12146284600F08F
:10CCC40013F990B10FE00B4B9C4201D1AC68D0E753
:10CCD400094B9C4208BFEC68CBE72146284600F08C
:10CCE4000DF80028CCD04FF0FF373846F8BD00BF10
:10CCF40010DC000830DC0008F0DB0008324B70B5B3
:10CD04001D6806460C4625B1AB6913B9284600F0E8
:10CD140055F92E4B9C420FD16C68B4F90C309AB281
:10CD240015072CD4D00611D40922326043F04003F5
:10CD3400A3814FF0FF3070BD254B9C4201D1AC68FC
:10CD4400EBE7244B9C4208BFEC68E6E7510712D599
:10CD5400616B41B104F14403994202D0304600F0C2
:10CD640037FA00236363A38923F02403A3810023F8
:10CD7400636023692360A38943F00803A3812369C3
:10CD84004BB9A38903F42073B3F5007F03D0214684
:10CD9400304600F0C1F9A28912F001030CD000233F
:10CDA400A36063695B42A361236953B9B4F90C308E
:10CDB40013F08000BAD170BD920758BF6369A360B5
:10CDC400F2E70020F7E700BFA800002010DC00080D
:10CDD40030DC0008F0DB00088A892DE9F0410546C3
:10CDE40010070C465AD44B68002B05DC0B6C002B47
:10CDF40002DC0020BDE8F081E66A002EF9D00023B1
:10CE040012F480522F682B6033D0606DA3895A07C7
:10CE140005D56368C01A636B0BB1236CC01A002379
:10CE24000246E66A216A2846B047431CA38906D114
:10CE340029681D294BD82B4ACA40D60747D500225A
:10CE44006260D9042269226004D5421C01D12B6896
:10CE540003B96065616B2F600029CAD004F14403F3
:10CE6400994202D0284600F0B3F900206063BDE87F
:10CE7400F081216A01232846B047411CC6D12B68A2
:10CE8400002BC3D01D2B01D0162B01D12F60B0E78E
:10CE9400A38943F04003A381BDE8F0810F69002F0B
:10CEA400A7D093070E6808BF4B690F6018BF002313
:10CEB400A6EB07088B60B8F1000F9ADD43463A46AB
:10CEC400216AA66A2846B047002807DCA38943F0F4
:10CED4004003A3814FF0FF30BDE8F0810744A8EB85
:10CEE4000008E8E70100402038B50B6905460C4608
:10CEF400DBB118B183690BB900F060F80C4B9C42AC
:10CF040009D16C68B4F90C307BB121462846BDE8E0
:10CF14003840FFF761BF074B9C4201D1AC68F1E791
:10CF2400054B9C4208BFEC68ECE7002038BD00BF0D
:10CF340010DC000830DC0008F0DB0008014900F0D8
:10CF4400A9B800BFEDCE0008002310B50446036065
:10CF54004360836081814366C2810361436183616D
:10CF6400194608225C30FFF781FB054B6362054BD1
:10CF7400A362054BE362054B2462236310BD00BF2B
:10CF84004DD300086FD30008A7D30008CBD3000803
:10CF940070B54A1E682555430E4605F1740100F02C
:10CFA40065F9044640B1002180E842000C30A060DD
:10CFB40005F16802FFF75AFB204670BD836910B57E
:10CFC400044633BB8364C3640365124B124A1B6873
:10CFD4008262984204BF0123836100F01FF86060FD
:10CFE400204600F01BF8A060204600F017F800224D
:10CFF400E06004216068FFF7A7FF01220921A0680F
:10D00400FFF7A2FF02221221E068FFF79DFF012330
:10D01400A36110BDB8DB000841CF0008F8B51C4B74
:10D024001E68B369074613B93046FFF7C7FF483691
:10D03400B4687368013B03D5336833B13668F7E7E6
:10D04400B4F90C506DB16834F4E704213846FFF7A5
:10D054009FFF30600028F1D10C233B60044620463A
:10D06400F8BD4FF6FF73E3810123A3816566256054
:10D07400A560656025616561A5610822294604F102
:10D084005C00FFF7F3FA6563A563A564E564E6E76E
:10D09400B8DB00082DE9F8438046894600F14804CE
:10D0A400002614B93046BDE8F883A5686768013FD7
:10D0B40001D52468F5E7AB89012B07D9B5F90E3002
:10D0C400013303D029464046C84706436835EEE796
:10D0D40070B50E46B1F90E10002990B014461D46E5
:10D0E40007DA00232B60B3891A0610D44FF4806347
:10D0F4000EE001AA00F08EF90028F2DB029A02F495
:10D104007042A2F500535A425A412A60EEE7402386
:10D114000020236010B070BD8B8973B59D0706464F
:10D124000C4607D504F1470323602361012363619F
:10D1340002B070BD01AB6A46FFF7CAFF009905460D
:10D14400304600F093F848B9B4F90C309A05EFD49E
:10D1540023F0030343F00203A381E3E70D4BB3621F
:10D16400A389206043F08003A381009B6361019B3A
:10D1740020615BB1B4F90E10304600F05DF928B1BE
:10D18400A38923F0030343F00103A381A3891D436F
:10D19400A581CDE741CF0008024B0146186800F095
:10D1A40065B800BFA8000020024B0146186800F0D3
:10D1B4000FB800BFA800002010B5431E0A449142D6
:10D1C40000D110BD11F8014B03F8014FF7E700003F
:10D1D40038B50546002945D051F8043C0C1F002BF6
:10D1E400B8BFE41800F04AF91F4A1368104633B96F
:10D1F400636014602846BDE8384000F040B9A3429B
:10D204000CD921686218934204BF1A685B68636092
:10D2140004BF521822600460ECE713465A680AB14E
:10D22400A242FAD919685818A0420BD120680144C7
:10D23400581882421960DDD1106852685A6001445E
:10D244001960D7E702D90C232B60D3E72068211893
:10D254008A4204BF11685268626004BF09182160E1
:10D264005C60C7E738BD00BF1C08002070B5CD1C4A
:10D2740025F0030508350C2D38BF0C25002D064676
:10D2840001DBA94203D90C233360002070BD00F0F8
:10D29400F5F8234A1468214691B9224C23681BB936
:10D2A400304600F041F820602946304600F03CF852
:10D2B400431C26D10C233360304600F0E0F8E4E749
:10D2C4000B685B1B1AD40B2B0FD90B60CD50CC18F9
:10D2D400304600F0D4F804F10B00231D20F00700C1
:10D2E400C31A1BD05A42E25070BD8C420DBF636812
:10D2F4004B686360136018BF0C46E9E70C46496845
:10D30400CAE7C41C24F00304A04205D0211A304605
:10D3140000F00AF80130CDD02560D9E770BD00BF18
:10D324001C0800202008002038B5064C00230546C0
:10D3340008462360FBF78EF9431C02D1236803B12E
:10D344002B6038BDC408002010B50C46B1F90E108E
:10D3540000F096F80028ABBF636DA3891B1823F473
:10D364008053ACBF6365A38110BD2DE9F0411F4616
:10D374008B89DB0505460C46164605D5022300229B
:10D38400B1F90E1000F068F8A389B4F90E1023F473
:10D394008053A38132463B462846BDE8F04100F065
:10D3A40017B810B50C46B1F90E1000F055F8431C2F
:10D3B400A38915BF606523F4805343F48053A3818C
:10D3C40018BFA38110BDB1F90E1000F013B800000E
:10D3D40038B5074C054608461146002222601A4615
:10D3E400FBF77DF8431C02D1236803B12B6038BDE1
:10D3F400C408002038B5064C0023054608462360BF
:10D40400FBF725F9431C02D1236803B12B6038BD17
:10D41400C408002038B5074C0023054608461146C9
:10D424002360FBF70FF9431C02D1236803B12B607F
:10D4340038BD00BFC408002038B5064C002305469B
:10D4440008462360FBF7FCF8431C02D1236803B1B0
:10D454002B6038BDC408002038B5074C0546084683
:10D464001146002222601A46FBF7E8F8431C02D159
:10D47400236803B12B6038BDC4080020704770478F
:10D4840038B5074C054608461146002222601A4664
:10D49400FBF7D2F8431C02D1236803B12B6038BDDB
:10D4A400C4080020244B1A68D0075CBF01221A600C
:10D4B400224B1A68D1075CBF01221A60204B1A68FC
:10D4C400D2075CBF01221A601E4B1A68D0075CBFEA
:10D4D40001221A601C4B1A68D1075CBF01221A6032
:10D4E4001A4B1A68D2075CBF01221A60184B1A68DB
:10D4F400D0075CBF01221A60164B1A68D1075CBFC3
:10D5040001221A60144B1A68D2075CBF01221A6008
:10D51400124B1A68D0075CBF01221A60104B1A68BC
:10D52400D1075CBF01221A600E4B1A68D2075CBF98
:10D5340001221A60704700BF500800204C080020E8
:10D544004808002044080020400800203C0800202F
:10D554003808002034080020300800202C0800205F
:10D564002808002024080020244B1A68D0075CBF38
:10D5740001221A60224B1A68D1075CBF01221A608B
:10D58400204B1A68D2075CBF01221A601E4B1A682E
:10D59400D0075CBF01221A601C4B1A68D1075CBF1C
:10D5A40001221A601A4B1A68D2075CBF01221A6062
:10D5B400184B1A68D0075CBF01221A60164B1A6810
:10D5C400D1075CBF01221A60144B1A68D2075CBFF2
:10D5D40001221A60124B1A68D0075CBF01221A603C
:10D5E400104B1A68D1075CBF01221A600E4B1A68EF
:10D5F400D2075CBF01221A60704700BF8008002078
:10D604007C0800207808002074080020700800209E
:10D614006C080020680800206408002060080020CE
:10D624005C0800205808002054080020184B1A6891
:10D63400D1075CBF01221A60164B1A68D2075CBF7F
:10D6440001221A60144B1A68D0075CBF01221A60C9
:10D65400124B1A68D1075CBF01221A60104B1A687A
:10D66400D2075CBF01221A600E4B1A68D0075CBF58
:10D6740001221A600C4B1A68D1075CBF01221A60A0
:10D684000A4B1A68D2075CBF01221A60704700BFB8
:10D69400A00800209C08002098080020940800207E
:10D6A400900800208C0800208808002084080020AE
:10D6B400184B1A68D1075CBF01221A60164B1A680E
:10D6C400D2075CBF01221A60144B1A68D0075CBFF2
:10D6D40001221A60124B1A68D1075CBF01221A603A
:10D6E400104B1A68D2075CBF01221A600E4B1A68ED
:10D6F400D0075CBF01221A600C4B1A68D1075CBFCB
:10D7040001221A600A4B1A68D2075CBF01221A6010
:10D71400704700BFC0080020BC080020B8080020E3
:10D72400B4080020B0080020AC080020A80800209D
:10D73400A4080020F8B500BFF8BC08BC9E4670479A
:0CD74400F8B500BFF8BC08BC9E4670475A
:10D75000010102030406080A0E0F04080C00000071
:10D760000000000000010203040607080901040884
:10D770000200000000000000000000007B8E000896
:10D78000C58D00086B8E0008298E0008518E000898
:10D79000158E0008000000000000000085820008CF
:10D7A000DD89000825880008D982000803020A13D1
:10D7B00015141A0809271607060519182A2C5B0DD7
:10D7C0000E0F172D2E2F505122232B3229282625BC
:10D7D0000C0B1C1B12111F1E1D2400010410212004
:10D7E00007062223251B12240400000000740040B9
:10D7F00003800000050000000074004003000100E9
:10D80000FF00000000000000000000000100000018
:10D810000040014012891000040000000004004094
:10D8200012020100060000000044014012810000C5
:10D8300007000000004801401281000008000000BD
:10D84000002C01401286000009000000002C01405D
:10D85000120601000A000000002C0140128601009F
:10D860000B000000002C0140120B02000C00000015
:10D8700000440140128100000D00000000440140FE
:10D88000128110000E00000000340140120501005A
:10D890000F00000000340140128200001000000060
:10D8A000002C01401206110013000000003401405A
:10D8B0001284100014000000004401401281000096
:10D8C0001500000000480140128A00001600000008
:10D8D0000044014012811000170000000048014080
:10D8E0001281100018000000004401401281000065
:10D8F0001900000000480140128100001A000000D9
:10D9000000000040128101001D000000002C0140B9
:10D91000128610001E00000000400140128100002D
:10D920001F00000000400140120101002000000023
:10D93000002C01401282000021000000002C014058
:10D940001202010022000000002C0140128201009E
:10D9500023000000002C01401202020026000000FB
:10D960000004004012820000270000000004004074
:10D970001202010028000000000400401282010091
:10D980002900000000040040120202002A000000EA
:10D9900000340140128410002B00000000340140CC
:10D9A000120411002C000000003401401284110008
:10D9B0002D000000002C01401284100050000000D7
:10D9C000002C014012861100FF0000000000000042
:10D9D00000000000D40600200200000000440040C7
:10D9E0001207000009000000003801401207000083
:10D9F0000E00000000440040120700001300000069
:10DA000000440040120700001600000000380140EA
:10DA10001207000019000000004800401207000033
:10DA20001A00000000480040120700002400000017
:10DA300000380140120700002A000000004C00409E
:10DA4000120500002C0000000050004012050000EC
:10DA5000FF000000000000000000000003000000C4
:10DA600000440040120700000A0000000038014096
:10DA7000120700000F0000000044004012070000E1
:10DA800014000000004400401207000017000000CE
:10DA90000038014012070000180000000048004054
:10DAA000120700001B0000000048004012070000A1
:10DAB0002500000000380140120700002B00000084
:10DAC000004C0040120500003200000000500040F1
